{"abi":[{"type":"constructor","inputs":[],"stateMutability":"nonpayable"},{"type":"function","name":"allowance","inputs":[{"name":"_owner","type":"address","internalType":"address"},{"name":"spender","type":"address","internalType":"address"}],"outputs":[{"name":"remaining","type":"uint256","internalType":"uint256"}],"stateMutability":"view"},{"type":"function","name":"approve","inputs":[{"name":"_spender","type":"address","internalType":"address"},{"name":"_value","type":"uint256","internalType":"uint256"}],"outputs":[{"name":"success","type":"bool","internalType":"bool"}],"stateMutability":"nonpayable"},{"type":"function","name":"balanceOf","inputs":[{"name":"acc","type":"address","internalType":"address"}],"outputs":[{"name":"","type":"uint256","internalType":"uint256"}],"stateMutability":"view"},{"type":"function","name":"decimals","inputs":[],"outputs":[{"name":"","type":"uint8","internalType":"uint8"}],"stateMutability":"view"},{"type":"function","name":"getOwner","inputs":[],"outputs":[{"name":"","type":"address","internalType":"address"}],"stateMutability":"view"},{"type":"function","name":"mint","inputs":[{"name":"recipient","type":"address","internalType":"address"},{"name":"amount","type":"uint256","internalType":"uint256"}],"outputs":[],"stateMutability":"nonpayable"},{"type":"function","name":"name","inputs":[],"outputs":[{"name":"","type":"string","internalType":"string"}],"stateMutability":"view"},{"type":"function","name":"owner","inputs":[],"outputs":[{"name":"","type":"address","internalType":"address"}],"stateMutability":"view"},{"type":"function","name":"symbol","inputs":[],"outputs":[{"name":"","type":"string","internalType":"string"}],"stateMutability":"view"},{"type":"function","name":"totalSupply","inputs":[],"outputs":[{"name":"","type":"uint256","internalType":"uint256"}],"stateMutability":"view"},{"type":"function","name":"transfer","inputs":[{"name":"recipient","type":"address","internalType":"address"},{"name":"amount","type":"uint256","internalType":"uint256"}],"outputs":[{"name":"","type":"bool","internalType":"bool"}],"stateMutability":"nonpayable"},{"type":"function","name":"transferFrom","inputs":[{"name":"sender","type":"address","internalType":"address"},{"name":"recipient","type":"address","internalType":"address"},{"name":"amount","type":"uint256","internalType":"uint256"}],"outputs":[{"name":"success","type":"bool","internalType":"bool"}],"stateMutability":"nonpayable"},{"type":"event","name":"Approval","inputs":[{"name":"owner","type":"address","indexed":true,"internalType":"address"},{"name":"spender","type":"address","indexed":true,"internalType":"address"},{"name":"value","type":"uint256","indexed":false,"internalType":"uint256"}],"anonymous":false},{"type":"event","name":"Transfer","inputs":[{"name":"from","type":"address","indexed":true,"internalType":"address"},{"name":"to","type":"address","indexed":true,"internalType":"address"},{"name":"value","type":"uint256","indexed":false,"internalType":"uint256"}],"anonymous":false}],"bytecode":{"object":"0x60806040526040518060400160405280600b81526020017f536f6369616c4669693432000000000000000000000000000000000000000000815250600490816100489190610404565b506040518060400160405280600381526020017f53463200000000000000000000000000000000000000000000000000000000008152506005908161008d9190610404565b50601260065f6101000a81548160ff021916908360ff1602179055503480156100b4575f5ffd5b503360035f6101000a81548173ffffffffffffffffffffffffffffffffffffffff021916908373ffffffffffffffffffffffffffffffffffffffff1602179055505f69d3c21bcecceda10000009050805f5f3373ffffffffffffffffffffffffffffffffffffffff1673ffffffffffffffffffffffffffffffffffffffff1681526020019081526020015f2081905550806002819055503373ffffffffffffffffffffffffffffffffffffffff165f73ffffffffffffffffffffffffffffffffffffffff167fddf252ad1be2c89b69c2b068fc378daa952ba7f163c4a11628f55a4df523b3ef836040516101a891906104e2565b60405180910390a3506104fb565b5f81519050919050565b7f4e487b71000000000000000000000000000000000000000000000000000000005f52604160045260245ffd5b7f4e487b71000000000000000000000000000000000000000000000000000000005f52602260045260245ffd5b5f600282049050600182168061023157607f821691505b602082108103610244576102436101ed565b5b50919050565b5f819050815f5260205f209050919050565b5f6020601f8301049050919050565b5f82821b905092915050565b5f600883026102a67fffffffffffffffffffffffffffffffffffffffffffffffffffffffffffffffff8261026b565b6102b0868361026b565b95508019841693508086168417925050509392505050565b5f819050919050565b5f819050919050565b5f6102f46102ef6102ea846102c8565b6102d1565b6102c8565b9050919050565b5f819050919050565b61030d836102da565b610321610319826102fb565b848454610277565b825550505050565b5f5f905090565b610338610329565b610343818484610304565b505050565b5f5b828110156103695761035e5f828401610330565b60018101905061034a565b505050565b601f8211156103bc57828211156103bb576103888161024a565b6103918361025c565b61039a8561025c565b60208610156103a7575f90505b8083016103b682840382610348565b505050505b5b505050565b5f82821c905092915050565b5f6103dc5f19846008026103c1565b1980831691505092915050565b5f6103f483836103cd565b9150826002028217905092915050565b61040d826101b6565b67ffffffffffffffff811115610426576104256101c0565b5b610430825461021a565b61043b82828561036e565b5f60209050601f83116001811461046c575f841561045a578287015190505b61046485826103e9565b8655506104cb565b601f19841661047a8661024a565b5f5b828110156104a15784890151825560018201915060208501945060208101905061047c565b868310156104be57848901516104ba601f8916826103cd565b8355505b6001600288020188555050505b505050505050565b6104dc816102c8565b82525050565b5f6020820190506104f55f8301846104d3565b92915050565b611134806105085f395ff3fe608060405234801561000f575f5ffd5b50600436106100b2575f3560e01c806370a082311161006f57806370a082311461018c578063893d20e8146101bc5780638da5cb5b146101da57806395d89b41146101f8578063a9059cbb14610216578063dd62ed3e14610246576100b2565b806306fdde03146100b6578063095ea7b3146100d457806318160ddd1461010457806323b872dd14610122578063313ce5671461015257806340c10f1914610170575b5f5ffd5b6100be610276565b6040516100cb9190610be9565b60405180910390f35b6100ee60048036038101906100e99190610c9a565b610302565b6040516100fb9190610cf2565b60405180910390f35b61010c6103ef565b6040516101199190610d1a565b60405180910390f35b61013c60048036038101906101379190610d33565b6103f5565b6040516101499190610cf2565b60405180910390f35b61015a6106d2565b6040516101679190610d9e565b60405180910390f35b61018a60048036038101906101859190610c9a565b6106e4565b005b6101a660048036038101906101a19190610db7565b610846565b6040516101b39190610d1a565b60405180910390f35b6101c461088b565b6040516101d19190610df1565b60405180910390f35b6101e26108b3565b6040516101ef9190610df1565b60405180910390f35b6102006108d8565b60405161020d9190610be9565b60405180910390f35b610230600480360381019061022b9190610c9a565b610964565b60405161023d9190610cf2565b60405180910390f35b610260600480360381019061025b9190610e0a565b610af7565b60405161026d9190610d1a565b60405180910390f35b6004805461028390610e75565b80601f01602080910402602001604051908101604052809291908181526020018280546102af90610e75565b80156102fa5780601f106102d1576101008083540402835291602001916102fa565b820191905f5260205f20905b8154815290600101906020018083116102dd57829003601f168201915b505050505081565b5f8160015f3373ffffffffffffffffffffffffffffffffffffffff1673ffffffffffffffffffffffffffffffffffffffff1681526020019081526020015f205f8573ffffffffffffffffffffffffffffffffffffffff1673ffffffffffffffffffffffffffffffffffffffff1681526020019081526020015f20819055508273ffffffffffffffffffffffffffffffffffffffff163373ffffffffffffffffffffffffffffffffffffffff167f8c5be1e5ebec7d5bd14f71427d1e84f3dd0314c0f7b2291e5b200ac8c7c3b925846040516103dd9190610d1a565b60405180910390a36001905092915050565b60025481565b5f5f5f8573ffffffffffffffffffffffffffffffffffffffff1673ffffffffffffffffffffffffffffffffffffffff1681526020019081526020015f2054821115610475576040517f08c379a000000000000000000000000000000000000000000000000000000000815260040161046c90610eef565b60405180910390fd5b60015f8573ffffffffffffffffffffffffffffffffffffffff1673ffffffffffffffffffffffffffffffffffffffff1681526020019081526020015f205f3373ffffffffffffffffffffffffffffffffffffffff1673ffffffffffffffffffffffffffffffffffffffff1681526020019081526020015f2054821115610530576040517f08c379a000000000000000000000000000000000000000000000000000000000815260040161052790610f57565b60405180910390fd5b815f5f8673ffffffffffffffffffffffffffffffffffffffff1673ffffffffffffffffffffffffffffffffffffffff1681526020019081526020015f205f82825461057b9190610fa2565b925050819055508160015f8673ffffffffffffffffffffffffffffffffffffffff1673ffffffffffffffffffffffffffffffffffffffff1681526020019081526020015f205f3373ffffffffffffffffffffffffffffffffffffffff1673ffffffffffffffffffffffffffffffffffffffff1681526020019081526020015f205f8282546106099190610fa2565b92505081905550815f5f8573ffffffffffffffffffffffffffffffffffffffff1673ffffffffffffffffffffffffffffffffffffffff1681526020019081526020015f205f82825461065b9190610fd5565b925050819055508273ffffffffffffffffffffffffffffffffffffffff168473ffffffffffffffffffffffffffffffffffffffff167fddf252ad1be2c89b69c2b068fc378daa952ba7f163c4a11628f55a4df523b3ef846040516106bf9190610d1a565b60405180910390a3600190509392505050565b60065f9054906101000a900460ff1681565b60035f9054906101000a900473ffffffffffffffffffffffffffffffffffffffff1673ffffffffffffffffffffffffffffffffffffffff163373ffffffffffffffffffffffffffffffffffffffff1614610773576040517f08c379a000000000000000000000000000000000000000000000000000000000815260040161076a90611078565b60405180910390fd5b805f5f8473ffffffffffffffffffffffffffffffffffffffff1673ffffffffffffffffffffffffffffffffffffffff1681526020019081526020015f205f8282546107be9190610fd5565b925050819055508060025f8282546107d69190610fd5565b925050819055508173ffffffffffffffffffffffffffffffffffffffff165f73ffffffffffffffffffffffffffffffffffffffff167fddf252ad1be2c89b69c2b068fc378daa952ba7f163c4a11628f55a4df523b3ef8360405161083a9190610d1a565b60405180910390a35050565b5f5f5f8373ffffffffffffffffffffffffffffffffffffffff1673ffffffffffffffffffffffffffffffffffffffff1681526020019081526020015f20549050919050565b5f60035f9054906101000a900473ffffffffffffffffffffffffffffffffffffffff16905090565b60035f9054906101000a900473ffffffffffffffffffffffffffffffffffffffff1681565b600580546108e590610e75565b80601f016020809104026020016040519081016040528092919081815260200182805461091190610e75565b801561095c5780601f106109335761010080835404028352916020019161095c565b820191905f5260205f20905b81548152906001019060200180831161093f57829003601f168201915b505050505081565b5f5f5f3373ffffffffffffffffffffffffffffffffffffffff1673ffffffffffffffffffffffffffffffffffffffff1681526020019081526020015f20548211156109e4576040517f08c379a00000000000000000000000000000000000000000000000000000000081526004016109db906110e0565b60405180910390fd5b815f5f3373ffffffffffffffffffffffffffffffffffffffff1673ffffffffffffffffffffffffffffffffffffffff1681526020019081526020015f205f828254610a2f9190610fa2565b92505081905550815f5f8573ffffffffffffffffffffffffffffffffffffffff1673ffffffffffffffffffffffffffffffffffffffff1681526020019081526020015f205f828254610a819190610fd5565b925050819055508273ffffffffffffffffffffffffffffffffffffffff163373ffffffffffffffffffffffffffffffffffffffff167fddf252ad1be2c89b69c2b068fc378daa952ba7f163c4a11628f55a4df523b3ef84604051610ae59190610d1a565b60405180910390a36001905092915050565b5f60015f8473ffffffffffffffffffffffffffffffffffffffff1673ffffffffffffffffffffffffffffffffffffffff1681526020019081526020015f205f8373ffffffffffffffffffffffffffffffffffffffff1673ffffffffffffffffffffffffffffffffffffffff1681526020019081526020015f2054905092915050565b5f81519050919050565b5f82825260208201905092915050565b8281835e5f83830152505050565b5f601f19601f8301169050919050565b5f610bbb82610b79565b610bc58185610b83565b9350610bd5818560208601610b93565b610bde81610ba1565b840191505092915050565b5f6020820190508181035f830152610c018184610bb1565b905092915050565b5f5ffd5b5f73ffffffffffffffffffffffffffffffffffffffff82169050919050565b5f610c3682610c0d565b9050919050565b610c4681610c2c565b8114610c50575f5ffd5b50565b5f81359050610c6181610c3d565b92915050565b5f819050919050565b610c7981610c67565b8114610c83575f5ffd5b50565b5f81359050610c9481610c70565b92915050565b5f5f60408385031215610cb057610caf610c09565b5b5f610cbd85828601610c53565b9250506020610cce85828601610c86565b9150509250929050565b5f8115159050919050565b610cec81610cd8565b82525050565b5f602082019050610d055f830184610ce3565b92915050565b610d1481610c67565b82525050565b5f602082019050610d2d5f830184610d0b565b92915050565b5f5f5f60608486031215610d4a57610d49610c09565b5b5f610d5786828701610c53565b9350506020610d6886828701610c53565b9250506040610d7986828701610c86565b9150509250925092565b5f60ff82169050919050565b610d9881610d83565b82525050565b5f602082019050610db15f830184610d8f565b92915050565b5f60208284031215610dcc57610dcb610c09565b5b5f610dd984828501610c53565b91505092915050565b610deb81610c2c565b82525050565b5f602082019050610e045f830184610de2565b92915050565b5f5f60408385031215610e2057610e1f610c09565b5b5f610e2d85828601610c53565b9250506020610e3e85828601610c53565b9150509250929050565b7f4e487b71000000000000000000000000000000000000000000000000000000005f52602260045260245ffd5b5f6002820490506001821680610e8c57607f821691505b602082108103610e9f57610e9e610e48565b5b50919050565b7f4e6f7420656e6f7567687420746f6b656e7300000000000000000000000000005f82015250565b5f610ed9601283610b83565b9150610ee482610ea5565b602082019050919050565b5f6020820190508181035f830152610f0681610ecd565b9050919050565b7f4e6f7420656e6f7567687420746f6b656e7320616c6c6f7765640000000000005f82015250565b5f610f41601a83610b83565b9150610f4c82610f0d565b602082019050919050565b5f6020820190508181035f830152610f6e81610f35565b9050919050565b7f4e487b71000000000000000000000000000000000000000000000000000000005f52601160045260245ffd5b5f610fac82610c67565b9150610fb783610c67565b9250828203905081811115610fcf57610fce610f75565b5b92915050565b5f610fdf82610c67565b9150610fea83610c67565b925082820190508082111561100257611001610f75565b5b92915050565b7f4f6e6c7920746865206f776e65722063616e20706572666f726d2074686973205f8201527f616374696f6e0000000000000000000000000000000000000000000000000000602082015250565b5f611062602683610b83565b915061106d82611008565b604082019050919050565b5f6020820190508181035f83015261108f81611056565b9050919050565b7f4e6f7420656e6f7567682062616c616e63652e000000000000000000000000005f82015250565b5f6110ca601383610b83565b91506110d582611096565b602082019050919050565b5f6020820190508181035f8301526110f7816110be565b905091905056fea2646970667358221220d182ca7239c5d227820f8d3598e73dec18a7ee9f7063748b80586ac7e9eed4e864736f6c63430008210033","linkReferences":{}},"methodIdentifiers":{"allowance(address,address)":"dd62ed3e","approve(address,uint256)":"095ea7b3","balanceOf(address)":"70a08231","decimals()":"313ce567","getOwner()":"893d20e8","mint(address,uint256)":"40c10f19","name()":"06fdde03","owner()":"8da5cb5b","symbol()":"95d89b41","totalSupply()":"18160ddd","transfer(address,uint256)":"a9059cbb","transferFrom(address,address,uint256)":"23b872dd"},"id":19}